{
  "_format": "hh-sol-artifact-1",
  "contractName": "InternERC20",
  "sourceName": "contracts/InternERC20.sol",
  "abi": [
    {
      "inputs": [
        {
          "internalType": "string",
          "name": "name_",
          "type": "string"
        },
        {
          "internalType": "string",
          "name": "symbol_",
          "type": "string"
        },
        {
          "internalType": "address",
          "name": "_owner",
          "type": "address"
        }
      ],
      "stateMutability": "nonpayable",
      "type": "constructor"
    },
    {
      "anonymous": false,
      "inputs": [
        {
          "indexed": true,
          "internalType": "address",
          "name": "owner",
          "type": "address"
        },
        {
          "indexed": true,
          "internalType": "address",
          "name": "to",
          "type": "address"
        },
        {
          "indexed": false,
          "internalType": "uint256",
          "name": "amount",
          "type": "uint256"
        }
      ],
      "name": "Approve",
      "type": "event"
    },
    {
      "anonymous": false,
      "inputs": [
        {
          "indexed": true,
          "internalType": "address",
          "name": "from",
          "type": "address"
        },
        {
          "indexed": true,
          "internalType": "address",
          "name": "to",
          "type": "address"
        },
        {
          "indexed": false,
          "internalType": "uint256",
          "name": "amount",
          "type": "uint256"
        },
        {
          "indexed": true,
          "internalType": "bool",
          "name": "status",
          "type": "bool"
        }
      ],
      "name": "TotalTokenStatus",
      "type": "event"
    },
    {
      "anonymous": false,
      "inputs": [
        {
          "indexed": true,
          "internalType": "address",
          "name": "from",
          "type": "address"
        },
        {
          "indexed": true,
          "internalType": "address",
          "name": "to",
          "type": "address"
        },
        {
          "indexed": false,
          "internalType": "uint256",
          "name": "amount",
          "type": "uint256"
        }
      ],
      "name": "Transfer",
      "type": "event"
    },
    {
      "anonymous": false,
      "inputs": [
        {
          "indexed": true,
          "internalType": "address",
          "name": "from",
          "type": "address"
        },
        {
          "indexed": true,
          "internalType": "address",
          "name": "user",
          "type": "address"
        },
        {
          "indexed": true,
          "internalType": "bool",
          "name": "status",
          "type": "bool"
        }
      ],
      "name": "Whitelist",
      "type": "event"
    },
    {
      "inputs": [
        {
          "internalType": "address",
          "name": "to",
          "type": "address"
        }
      ],
      "name": "addToWhitelist",
      "outputs": [],
      "stateMutability": "nonpayable",
      "type": "function"
    },
    {
      "inputs": [
        {
          "internalType": "address",
          "name": "account",
          "type": "address"
        }
      ],
      "name": "addressWhitelistStatus",
      "outputs": [
        {
          "internalType": "bool",
          "name": "",
          "type": "bool"
        }
      ],
      "stateMutability": "view",
      "type": "function"
    },
    {
      "inputs": [
        {
          "internalType": "address",
          "name": "_owner",
          "type": "address"
        },
        {
          "internalType": "address",
          "name": "spender",
          "type": "address"
        }
      ],
      "name": "allowance",
      "outputs": [
        {
          "internalType": "uint256",
          "name": "",
          "type": "uint256"
        }
      ],
      "stateMutability": "view",
      "type": "function"
    },
    {
      "inputs": [
        {
          "internalType": "address",
          "name": "spender",
          "type": "address"
        },
        {
          "internalType": "uint256",
          "name": "amount",
          "type": "uint256"
        }
      ],
      "name": "approve",
      "outputs": [
        {
          "internalType": "bool",
          "name": "",
          "type": "bool"
        }
      ],
      "stateMutability": "nonpayable",
      "type": "function"
    },
    {
      "inputs": [
        {
          "internalType": "address",
          "name": "account",
          "type": "address"
        }
      ],
      "name": "balanceOf",
      "outputs": [
        {
          "internalType": "uint256",
          "name": "",
          "type": "uint256"
        }
      ],
      "stateMutability": "view",
      "type": "function"
    },
    {
      "inputs": [],
      "name": "decimals",
      "outputs": [
        {
          "internalType": "uint256",
          "name": "",
          "type": "uint256"
        }
      ],
      "stateMutability": "pure",
      "type": "function"
    },
    {
      "inputs": [
        {
          "internalType": "address",
          "name": "to",
          "type": "address"
        },
        {
          "internalType": "uint256",
          "name": "amount",
          "type": "uint256"
        }
      ],
      "name": "mint",
      "outputs": [],
      "stateMutability": "nonpayable",
      "type": "function"
    },
    {
      "inputs": [],
      "name": "name",
      "outputs": [
        {
          "internalType": "string",
          "name": "",
          "type": "string"
        }
      ],
      "stateMutability": "view",
      "type": "function"
    },
    {
      "inputs": [],
      "name": "owner",
      "outputs": [
        {
          "internalType": "address",
          "name": "",
          "type": "address"
        }
      ],
      "stateMutability": "view",
      "type": "function"
    },
    {
      "inputs": [],
      "name": "symbol",
      "outputs": [
        {
          "internalType": "string",
          "name": "",
          "type": "string"
        }
      ],
      "stateMutability": "view",
      "type": "function"
    },
    {
      "inputs": [],
      "name": "totalSupply",
      "outputs": [
        {
          "internalType": "uint256",
          "name": "",
          "type": "uint256"
        }
      ],
      "stateMutability": "view",
      "type": "function"
    },
    {
      "inputs": [
        {
          "internalType": "address",
          "name": "to",
          "type": "address"
        },
        {
          "internalType": "uint256",
          "name": "amount",
          "type": "uint256"
        }
      ],
      "name": "transfer",
      "outputs": [
        {
          "internalType": "bool",
          "name": "",
          "type": "bool"
        }
      ],
      "stateMutability": "nonpayable",
      "type": "function"
    },
    {
      "inputs": [
        {
          "internalType": "address",
          "name": "from",
          "type": "address"
        },
        {
          "internalType": "address",
          "name": "_to",
          "type": "address"
        },
        {
          "internalType": "uint256",
          "name": "amount",
          "type": "uint256"
        }
      ],
      "name": "transferFrom",
      "outputs": [
        {
          "internalType": "bool",
          "name": "",
          "type": "bool"
        }
      ],
      "stateMutability": "nonpayable",
      "type": "function"
    }
  ],
  "bytecode": "0x60806040523480156200001157600080fd5b5060405162002c0438038062002c048339818101604052810190620000379190620006c7565b6200006b7f4bf25dfde423fb457caf3d9ef32b21ee4f72d84bcb1c8ecbc1c722b6f047795060001b6200041260201b60201c565b6200009f7f72dd3fbdb3b615c4502e3a82c6c376e05b051de494c0741772979523ab602db160001b6200041260201b60201c565b620000d37f02a002d4633ffc69a244bb2f12a2c4ae755e8a13ce189f78ed3df41e400d2f3560001b6200041260201b60201c565b8260059080519060200190620000eb92919062000415565b50620001207fe1401e2a4ac9ff855abfed6e2e4efcf74bb42785e0c52287d35833de4fad3ea260001b6200041260201b60201c565b620001547f6cc3409b127eec1c094c78168c4dc49d60dd9c9031425cba7b52f32e0b1992f960001b6200041260201b60201c565b81600690805190602001906200016c92919062000415565b50620001a17f813f7791a362d23408ebc522861c78f2e8d3bbf2485c9b94ad3c907e2318b5ff60001b6200041260201b60201c565b620001d57fc9d1c885ceea18ccd752d1e81962de8ebd01c58c40214ea88f9704ebe2df919860001b6200041260201b60201c565b80600160006101000a81548173ffffffffffffffffffffffffffffffffffffffff021916908373ffffffffffffffffffffffffffffffffffffffff1602179055506200024a7f1a1576b637064910bdbf6c9ce41ac3b0c566e8d80b10c24421ab59c15882ebc660001b6200041260201b60201c565b6200027e7fdf54c26c0464f166f7285f8221db61a4cb4f73022e714eaf1051894ce7be1bc160001b6200041260201b60201c565b600160046000600160009054906101000a900473ffffffffffffffffffffffffffffffffffffffff1673ffffffffffffffffffffffffffffffffffffffff1673ffffffffffffffffffffffffffffffffffffffff16815260200190815260200160002060006101000a81548160ff0219169083151502179055506200032c7f3ba73795a0e7845ac93e885765d38b2500f28985d856e95231c606fd7358ad4160001b6200041260201b60201c565b620003607ff3f358578b29e28e5512920eab754c0bd5f9db390e45a6021a918c0b55fb870a60001b6200041260201b60201c565b600460003373ffffffffffffffffffffffffffffffffffffffff1673ffffffffffffffffffffffffffffffffffffffff16815260200190815260200160002060009054906101000a900460ff1615153373ffffffffffffffffffffffffffffffffffffffff163373ffffffffffffffffffffffffffffffffffffffff167f8cdb15df8c7fc4ba52e3cfca4d263f93453b8f8b6819f594f8bd8a6500e37e9360405160405180910390a4505050620007c6565b50565b828054620004239062000790565b90600052602060002090601f01602090048101928262000447576000855562000493565b82601f106200046257805160ff191683800117855562000493565b8280016001018555821562000493579182015b828111156200049257825182559160200191906001019062000475565b5b509050620004a29190620004a6565b5090565b5b80821115620004c1576000816000905550600101620004a7565b5090565b6000604051905090565b600080fd5b600080fd5b600080fd5b600080fd5b6000601f19601f8301169050919050565b7f4e487b7100000000000000000000000000000000000000000000000000000000600052604160045260246000fd5b6200052e82620004e3565b810181811067ffffffffffffffff8211171562000550576200054f620004f4565b5b80604052505050565b600062000565620004c5565b905062000573828262000523565b919050565b600067ffffffffffffffff821115620005965762000595620004f4565b5b620005a182620004e3565b9050602081019050919050565b60005b83811015620005ce578082015181840152602081019050620005b1565b83811115620005de576000848401525b50505050565b6000620005fb620005f58462000578565b62000559565b9050828152602081018484840111156200061a5762000619620004de565b5b62000627848285620005ae565b509392505050565b600082601f830112620006475762000646620004d9565b5b815162000659848260208601620005e4565b91505092915050565b600073ffffffffffffffffffffffffffffffffffffffff82169050919050565b60006200068f8262000662565b9050919050565b620006a18162000682565b8114620006ad57600080fd5b50565b600081519050620006c18162000696565b92915050565b600080600060608486031215620006e357620006e2620004cf565b5b600084015167ffffffffffffffff811115620007045762000703620004d4565b5b62000712868287016200062f565b935050602084015167ffffffffffffffff811115620007365762000735620004d4565b5b62000744868287016200062f565b92505060406200075786828701620006b0565b9150509250925092565b7f4e487b7100000000000000000000000000000000000000000000000000000000600052602260045260246000fd5b60006002820490506001821680620007a957607f821691505b60208210811415620007c057620007bf62000761565b5b50919050565b61242e80620007d66000396000f3fe608060405234801561001057600080fd5b50600436106100cf5760003560e01c806340c10f191161008c57806395d89b411161006657806395d89b4114610228578063a9059cbb14610246578063dd62ed3e14610276578063e43252d7146102a6576100cf565b806340c10f19146101be57806370a08231146101da5780638da5cb5b1461020a576100cf565b806306fdde03146100d4578063095ea7b3146100f257806318160ddd1461012257806323b872dd14610140578063313ce5671461017057806332e2e5541461018e575b600080fd5b6100dc6102c2565b6040516100e99190611ee9565b60405180910390f35b61010c60048036038101906101079190611fa4565b6103d8565b6040516101199190611fff565b60405180910390f35b61012a6104cb565b6040516101379190612029565b60405180910390f35b61015a60048036038101906101559190612044565b610559565b6040516101679190611fff565b60405180910390f35b610178610bb3565b6040516101859190612029565b60405180910390f35b6101a860048036038101906101a39190612097565b610c40565b6040516101b59190611fff565b60405180910390f35b6101d860048036038101906101d39190611fa4565b610d1a565b005b6101f460048036038101906101ef9190612097565b6110bf565b6040516102019190612029565b60405180910390f35b61021261118c565b60405161021f91906120d3565b60405180910390f35b6102306111b2565b60405161023d9190611ee9565b60405180910390f35b610260600480360381019061025b9190611fa4565b6112c8565b60405161026d9190611fff565b60405180910390f35b610290600480360381019061028b91906120ee565b6116c8565b60405161029d9190612029565b60405180910390f35b6102c060048036038101906102bb9190612097565b6117d3565b005b60606102f07fce94cfa96a5a39ccd8d9b9f950a3c34df4d73e15f75f3b79db01238c84d3dd6a60001b611c86565b61031c7f97791367fa1ecf0112f84ac6db9402f267635e340be13326fa4b9c24d422603660001b611c86565b6103487f49b931add7437077c902c28993513b7d9faa7cdc599548d2ec5186faec9c999a60001b611c86565b600580546103559061215d565b80601f01602080910402602001604051908101604052809291908181526020018280546103819061215d565b80156103ce5780601f106103a3576101008083540402835291602001916103ce565b820191906000526020600020905b8154815290600101906020018083116103b157829003601f168201915b5050505050905090565b60006104067fc7f1d61d0a6bc3fe9c818c2a2d5c017b2a3d59c4d194e1133e5c55953ab37b9660001b611c86565b6104327f34735e2f89bd180c1e29af78d544e0470d055a44488fdf48e8deba695fe022b860001b611c86565b61045e7f620dbbcd15e6f64efc7b8a81cb6746502de2a3a25a8cd818cb208bf07d7affc060001b611c86565b610469833384611c89565b6104957fa2ae3ad9b34c42180d8f5d8730ebb1f3c5201da1d3088e58be046b746123159360001b611c86565b6104c17f88231fad2c7fcd4b42ac41ef1477c69d2351252785863bd7a82980a3b97bf60260001b611c86565b6001905092915050565b60006104f97fbb558654fbc3b0983326687e9935f4eec012210bc72ade68a5016cba5f2c473260001b611c86565b6105257fb56d4ad0271190ba584738a312b83714b233732ab2ee3fcaa6324099d354531260001b611c86565b6105517fe9d9efa7521f4a4a5c159c3709119ea23b869007d64849003f78c6661bca0ffb60001b611c86565b600054905090565b600083826105897f7db9fe0e5ea4786aa93728f3dc0ac4d78c9e00deb1ae409a60505ba7d4e362a160001b611c86565b6105b57f4fa18718579082a2686fbc18575c8a98cf34e23aac79ec171669f852423db2c460001b611c86565b6105e17fe4192aba6e12797d10b7e4d26566935b432c03b2b63d41ce0109397b1f12bf9560001b611c86565b61060d7f4b2a9e4c05729cdbb753ded8ea5105e3696d82fcd17aba90b1d13718da60ac2360001b611c86565b80610617836110bf565b1015610658576040517f08c379a000000000000000000000000000000000000000000000000000000000815260040161064f906121db565b60405180910390fd5b6106847f9dd2fe9c263cb68c0e02ce736092bdd4a1b8d181f541dcb44a92f55dcacb5bba60001b611c86565b6106b07ff61bde97bb22515a10246c39ad3f73631fe9f956619efb5b9f9c26b82e7c16b060001b611c86565b6106dc7ff095bb0fbdaa1639777067d55fe287502674c630dc7e7c76b20fef03cfd9abb760001b611c86565b6107087fbd8442abe1db49bc18de04d4392c531e96cbccb9cc098125f36b7e14d3db57e460001b611c86565b6107347f5de5667680905df3851d3e1f0acd1a9e507cfa7c28d47b7e09f417049ce6219860001b611c86565b6107607f42029dbc103edba8d50075fd3ae356e8a9275594d3436c74e28fd80dc060bf5f60001b611c86565b83600360008873ffffffffffffffffffffffffffffffffffffffff1673ffffffffffffffffffffffffffffffffffffffff16815260200190815260200160002060008773ffffffffffffffffffffffffffffffffffffffff1673ffffffffffffffffffffffffffffffffffffffff16815260200190815260200160002054101561081f576040517f08c379a000000000000000000000000000000000000000000000000000000000815260040161081690612247565b60405180910390fd5b61084b7f6f8176fbb25785850437b7eed92c1d7e79d6a86fe43444ae1fe2ac28fb1c7fa960001b611c86565b6108777f0c26f37e2dc89058c86826d9f3a3e232cfed1ff12bad4eaf909a17f49b5de96c60001b611c86565b6108a37fea22536d55b91d0d93b4eaa7479a7b4cfeeeb5aeac8e0b6e275a2e3735bf958360001b611c86565b83600360008873ffffffffffffffffffffffffffffffffffffffff1673ffffffffffffffffffffffffffffffffffffffff16815260200190815260200160002060008773ffffffffffffffffffffffffffffffffffffffff1673ffffffffffffffffffffffffffffffffffffffff168152602001908152602001600020600082825461092f9190612296565b925050819055506109617e4cdbcfe67d6d6b128b065d7ac00d4ce3874276cce362fec189442885325ad360001b611c86565b61098d7fb5e76333a41299ab3bf78bb365f20cf3d1f6a720140ce010da2004a197be1f5b60001b611c86565b83600260008873ffffffffffffffffffffffffffffffffffffffff1673ffffffffffffffffffffffffffffffffffffffff16815260200190815260200160002060008282546109dc9190612296565b92505081905550610a0f7f25b11aa3d23ef79940635693bde2fa13c2e47e445e590bef382fb257d5a3a67760001b611c86565b610a3b7fa1760cdf35f6f331a76e0431346fd24b4377681e6f10a80e6a05160d255d157c60001b611c86565b83600260008773ffffffffffffffffffffffffffffffffffffffff1673ffffffffffffffffffffffffffffffffffffffff1681526020019081526020016000206000828254610a8a91906122ca565b92505081905550610abd7f101b27b1cbe110ae7b59f28b293a2f53afd3a20728f777c8818ebbd322163be860001b611c86565b610ae97fafaea4c13707f49d36a93bb79635e7e75d4d5f5cbfc6aaa010c1b14c0ab8047f60001b611c86565b8473ffffffffffffffffffffffffffffffffffffffff168673ffffffffffffffffffffffffffffffffffffffff167fddf252ad1be2c89b69c2b068fc378daa952ba7f163c4a11628f55a4df523b3ef86604051610b469190612029565b60405180910390a3610b7a7f22cc64655395d98def9d3f180ba958db8ab02baa9f2ed61e204a188b371d76db60001b611c86565b610ba67f1180d2cc1fba21534a4deb7bbc06a71a3a3a864604e02e0dd1c15b5c43df762f60001b611c86565b6001925050509392505050565b6000610be17f49ee83345cb95c1214bf9d2063a0733b46cbb8f282218b336f49bc328a8a123c60001b611c86565b610c0d7f66433298723dbd482c2149640be20478e53239a178ceb32b7eaa80c38b1bc24360001b611c86565b610c397fdec394164981f0139c879d089da4075e4c6fedeb19cb8b5c469d6b910d631bad60001b611c86565b6012905090565b6000610c6e7f83313b62d6325458e77f14195ea342f96e7e23465b5f2cb3fc027a914edbea3360001b611c86565b610c9a7f6e92641fb350bccb1bb3e7539e10969b5d9921509882f833285315bb8176f27a60001b611c86565b610cc67f3eb07e2cad1eb31143e3b8d05f9fdfb25c441183cec34cebb6625b45c4d5aed160001b611c86565b600460008373ffffffffffffffffffffffffffffffffffffffff1673ffffffffffffffffffffffffffffffffffffffff16815260200190815260200160002060009054906101000a900460ff169050919050565b33610d477fadac2254bbdf3a46b33cf731023421c2a5f14f08cf0839608fe28702b8cd750f60001b611c86565b610d737f2ac5b49cbcb7faed4448b3047e8bc0e3534a3c3d486a9223a9c073cbdf2e7c3a60001b611c86565b610d9f7fe856dfe197c5d33b9b87b85ca1c7a1929b280573c22418f2a0b8448c52c04d8a60001b611c86565b610dcb7fd3227a3a08e89f59c82d50038bb9e67e2970fefb73babf241ccdfa284374d9f560001b611c86565b600460008273ffffffffffffffffffffffffffffffffffffffff1673ffffffffffffffffffffffffffffffffffffffff16815260200190815260200160002060009054906101000a900460ff16610e57576040517f08c379a0000000000000000000000000000000000000000000000000000000008152600401610e4e9061236c565b60405180910390fd5b610e837f814ca6c8a99254f78bc5ca5f67cd1bca9823eb812bc4372ed4834840f406952460001b611c86565b610eaf7f2c96d57d23e54fd3193315f125430bc1ed9ccc07205020359cada20030b89c5a60001b611c86565b610edb7fe4d2f1d36747350f0692e14272f4914b4de11c821f5632d773eb0c88469d557260001b611c86565b610f077f2f2265f8b049df30d26e13a116b895b2b47994fdb2dd934728ff8c7c3abcd0a160001b611c86565b610f337f0f84ec116b7df6ed0ba94b0a402aaf07220be35706ee670ea82a586bdd71dd9b60001b611c86565b81600260008573ffffffffffffffffffffffffffffffffffffffff1673ffffffffffffffffffffffffffffffffffffffff1681526020019081526020016000206000828254610f8291906122ca565b92505081905550610fb57f13934638fdf8d866401f9fa8eec5b69744188f673af0d17f07554136b0fcd56360001b611c86565b610fe17f3edb9ad02e88a2a0286c66cf98a977e34ca3f330c6927016fc0c5bd49233ceb060001b611c86565b81600080828254610ff291906122ca565b925050819055506110257f86d5f3ff2d6ef053f5f866e043d917dd0282a113a7ed69a2ca3239e677569b1860001b611c86565b6110517f85b6c62437a685b72a7f509b096c49b15b9b4066d9735b99594a8e755456176260001b611c86565b600115158373ffffffffffffffffffffffffffffffffffffffff163373ffffffffffffffffffffffffffffffffffffffff167f0ba39d0e721f6e2afce28503630b1792db1072f0d02b683eee5b7f64fda9f3b3856040516110b29190612029565b60405180910390a4505050565b60006110ed7ff6a8063ca70d192b96625fd62578674c34d0667bc8ee3a6463fb17ccfb2c8c1d60001b611c86565b6111197f0990f7647c837dcc0dc9e7aac26aaafc8f8ae6531ba821de9e864db85da3878160001b611c86565b6111457fb1e6542ed4357cde729bef9b39f418045a9476e902dc8984871ee6b66a10cff060001b611c86565b600260008373ffffffffffffffffffffffffffffffffffffffff1673ffffffffffffffffffffffffffffffffffffffff168152602001908152602001600020549050919050565b600160009054906101000a900473ffffffffffffffffffffffffffffffffffffffff1681565b60606111e07f4f97b02116790547e0a481b4d5f570094cbf5cc0360ea100e13f513dcbd029b360001b611c86565b61120c7f2d0f0642c84f35603f636406abe461f78eb808aed64fa20718632fb791393f1760001b611c86565b6112387f6452c6b554ef81185132fc2f11016e89527957ebb7cd689b40abc399cb8a054260001b611c86565b600680546112459061215d565b80601f01602080910402602001604051908101604052809291908181526020018280546112719061215d565b80156112be5780601f10611293576101008083540402835291602001916112be565b820191906000526020600020905b8154815290600101906020018083116112a157829003601f168201915b5050505050905090565b600033826112f87f7db9fe0e5ea4786aa93728f3dc0ac4d78c9e00deb1ae409a60505ba7d4e362a160001b611c86565b6113247f4fa18718579082a2686fbc18575c8a98cf34e23aac79ec171669f852423db2c460001b611c86565b6113507fe4192aba6e12797d10b7e4d26566935b432c03b2b63d41ce0109397b1f12bf9560001b611c86565b61137c7f4b2a9e4c05729cdbb753ded8ea5105e3696d82fcd17aba90b1d13718da60ac2360001b611c86565b80611386836110bf565b10156113c7576040517f08c379a00000000000000000000000000000000000000000000000000000000081526004016113be906121db565b60405180910390fd5b6113f37f9dd2fe9c263cb68c0e02ce736092bdd4a1b8d181f541dcb44a92f55dcacb5bba60001b611c86565b61141f7ff61bde97bb22515a10246c39ad3f73631fe9f956619efb5b9f9c26b82e7c16b060001b611c86565b61144b7f8060c840cf5ec70a4fecf3a81bfe66c578293265e7eafd5666b03d45abae1e7860001b611c86565b6114777fcb5d99bb54d3688d1a2332d89275c5bb7ee7b3a382a4a652dfe31cfdf03a51ff60001b611c86565b6114a37f8f66166fd7e10352344ea514a136e6e58fe21ab17999f3bd6eac9f3f4a57e3da60001b611c86565b83600260003373ffffffffffffffffffffffffffffffffffffffff1673ffffffffffffffffffffffffffffffffffffffff16815260200190815260200160002060008282546114f29190612296565b925050819055506115257f7f4a7ae7c101ec8df1dabd38da578b9b02b45d77207e9084a310ffdcd41b545160001b611c86565b6115517fb1c2e56fe028641a775986e22c4068b546a13b78c222600d13336df5e0f5818760001b611c86565b83600260008773ffffffffffffffffffffffffffffffffffffffff1673ffffffffffffffffffffffffffffffffffffffff16815260200190815260200160002060008282546115a091906122ca565b925050819055506115d37f28840d36e01ffaafa5b665f0e3d7185e1b941f1bb5470967e36d142ac786a63a60001b611c86565b6115ff7f84880092af401c608d97918fb763be1eef43ac4403b75b568e5dc5c9046057c260001b611c86565b8473ffffffffffffffffffffffffffffffffffffffff163373ffffffffffffffffffffffffffffffffffffffff167fddf252ad1be2c89b69c2b068fc378daa952ba7f163c4a11628f55a4df523b3ef8660405161165c9190612029565b60405180910390a36116907fae20ab32cadb385a85d673a96342bbee8367ddea7d40487c6174c4b803abef7a60001b611c86565b6116bc7fb2443df1217cd4d62e862f866c26ab38d936fbf1d798ba3fc2f5c3a7684f854d60001b611c86565b60019250505092915050565b60006116f67ffac56cbd16a1dc75e7f0180a378d3056bcd24b26793056a3f5633d6ca0e42d5d60001b611c86565b6117227f9f1c2069f416539650593249c56cf6fadfd0d8016642cc0fe52aec846ec87c3560001b611c86565b61174e7ff9d286000f61f1e24a8d752cafe1ec73b6c70d139cc876fc19f4cd93f6a3a30e60001b611c86565b600360008473ffffffffffffffffffffffffffffffffffffffff1673ffffffffffffffffffffffffffffffffffffffff16815260200190815260200160002060008373ffffffffffffffffffffffffffffffffffffffff1673ffffffffffffffffffffffffffffffffffffffff16815260200190815260200160002054905092915050565b336118007fadac2254bbdf3a46b33cf731023421c2a5f14f08cf0839608fe28702b8cd750f60001b611c86565b61182c7f2ac5b49cbcb7faed4448b3047e8bc0e3534a3c3d486a9223a9c073cbdf2e7c3a60001b611c86565b6118587fe856dfe197c5d33b9b87b85ca1c7a1929b280573c22418f2a0b8448c52c04d8a60001b611c86565b6118847fd3227a3a08e89f59c82d50038bb9e67e2970fefb73babf241ccdfa284374d9f560001b611c86565b600460008273ffffffffffffffffffffffffffffffffffffffff1673ffffffffffffffffffffffffffffffffffffffff16815260200190815260200160002060009054906101000a900460ff16611910576040517f08c379a00000000000000000000000000000000000000000000000000000000081526004016119079061236c565b60405180910390fd5b61193c7f814ca6c8a99254f78bc5ca5f67cd1bca9823eb812bc4372ed4834840f406952460001b611c86565b6119687f2c96d57d23e54fd3193315f125430bc1ed9ccc07205020359cada20030b89c5a60001b611c86565b6119947ff34edb4d57fc03153c410ab3ecebe049a6abeca24041c6ffa8ad534e47ce9b3060001b611c86565b6119c07fb0f890c638d11249f3838668697129f902a998afc6a480abcf16a1806c3f238b60001b611c86565b6119ec7fbfb7c826047c8844973f9e4829da8f3b8959bed44beb2b5ab4b9819add8b52de60001b611c86565b611a187f7175da53d7b515a686aed71231052fba59656a94e380a1a3491a9128039fc96960001b611c86565b600460008373ffffffffffffffffffffffffffffffffffffffff1673ffffffffffffffffffffffffffffffffffffffff16815260200190815260200160002060009054906101000a900460ff1615611aa5576040517f08c379a0000000000000000000000000000000000000000000000000000000008152600401611a9c906123d8565b60405180910390fd5b611ad17f8b3c67453ba31eb5918f0492769c4a2bfe0763905b0622e09c2dd6788540e42160001b611c86565b611afd7f5fbe7a13c2fe54c3109a9474078367372d263a64cf8780d53c4516b4e6f28be060001b611c86565b611b297fc7d9ab015dca81a12cfe08ca21111178719ddeb9f487eec91c86a8a4f460cf2660001b611c86565b6001600460008473ffffffffffffffffffffffffffffffffffffffff1673ffffffffffffffffffffffffffffffffffffffff16815260200190815260200160002060006101000a81548160ff021916908315150217905550611bad7f70976165745b54ce4c8ce97ed81c49da2bfb0c6b709553c93fbd06c96ce4c3b560001b611c86565b611bd97f93ecaac4704c0f1c4a21e9974fd872830770f9962228ecc4263d53ff35647db460001b611c86565b600460008373ffffffffffffffffffffffffffffffffffffffff1673ffffffffffffffffffffffffffffffffffffffff16815260200190815260200160002060009054906101000a900460ff1615158273ffffffffffffffffffffffffffffffffffffffff163373ffffffffffffffffffffffffffffffffffffffff167f8cdb15df8c7fc4ba52e3cfca4d263f93453b8f8b6819f594f8bd8a6500e37e9360405160405180910390a45050565b50565b611cb57f974005eb0cfbb85b5a09c9e8d893f1d5fb71cdab09e6a2378de88b790a1fa20360001b611c86565b611ce17f5edfdde0521d6a8614f4689007dae9740cdc756add5b608b33302b87ddb8652b60001b611c86565b611d0d7fe2bfe60f5920b865a0de66378e2ed3de823a664bf58ab2f39af00913211052d360001b611c86565b80600360008473ffffffffffffffffffffffffffffffffffffffff1673ffffffffffffffffffffffffffffffffffffffff16815260200190815260200160002060008573ffffffffffffffffffffffffffffffffffffffff1673ffffffffffffffffffffffffffffffffffffffff16815260200190815260200160002081905550611dba7fb51ebe0d7613aa59353ee15f3622050f86ae76f7d446caafec59be862c87bcab60001b611c86565b611de67f2ea8385e791a43fff128052bd614f42501ac0fb56c12279e493c0c6fb9c233e160001b611c86565b8273ffffffffffffffffffffffffffffffffffffffff168273ffffffffffffffffffffffffffffffffffffffff167f6e11fb1b7f119e3f2fa29896ef5fdf8b8a2d0d4df6fe90ba8668e7d8b2ffa25e83604051611e439190612029565b60405180910390a3505050565b600081519050919050565b600082825260208201905092915050565b60005b83811015611e8a578082015181840152602081019050611e6f565b83811115611e99576000848401525b50505050565b6000601f19601f8301169050919050565b6000611ebb82611e50565b611ec58185611e5b565b9350611ed5818560208601611e6c565b611ede81611e9f565b840191505092915050565b60006020820190508181036000830152611f038184611eb0565b905092915050565b600080fd5b600073ffffffffffffffffffffffffffffffffffffffff82169050919050565b6000611f3b82611f10565b9050919050565b611f4b81611f30565b8114611f5657600080fd5b50565b600081359050611f6881611f42565b92915050565b6000819050919050565b611f8181611f6e565b8114611f8c57600080fd5b50565b600081359050611f9e81611f78565b92915050565b60008060408385031215611fbb57611fba611f0b565b5b6000611fc985828601611f59565b9250506020611fda85828601611f8f565b9150509250929050565b60008115159050919050565b611ff981611fe4565b82525050565b60006020820190506120146000830184611ff0565b92915050565b61202381611f6e565b82525050565b600060208201905061203e600083018461201a565b92915050565b60008060006060848603121561205d5761205c611f0b565b5b600061206b86828701611f59565b935050602061207c86828701611f59565b925050604061208d86828701611f8f565b9150509250925092565b6000602082840312156120ad576120ac611f0b565b5b60006120bb84828501611f59565b91505092915050565b6120cd81611f30565b82525050565b60006020820190506120e860008301846120c4565b92915050565b6000806040838503121561210557612104611f0b565b5b600061211385828601611f59565b925050602061212485828601611f59565b9150509250929050565b7f4e487b7100000000000000000000000000000000000000000000000000000000600052602260045260246000fd5b6000600282049050600182168061217557607f821691505b602082108114156121895761218861212e565b5b50919050565b7f6e6f7420656e6f75676820746f6b656e73210000000000000000000000000000600082015250565b60006121c5601283611e5b565b91506121d08261218f565b602082019050919050565b600060208201905081810360008301526121f4816121b8565b9050919050565b7f636865636b20616c6c6f77616e63652100000000000000000000000000000000600082015250565b6000612231601083611e5b565b915061223c826121fb565b602082019050919050565b6000602082019050818103600083015261226081612224565b9050919050565b7f4e487b7100000000000000000000000000000000000000000000000000000000600052601160045260246000fd5b60006122a182611f6e565b91506122ac83611f6e565b9250828210156122bf576122be612267565b5b828203905092915050565b60006122d582611f6e565b91506122e083611f6e565b9250827fffffffffffffffffffffffffffffffffffffffffffffffffffffffffffffffff0382111561231557612314612267565b5b828201905092915050565b7f796f7520617265206e6f742077686974656c6973746564210000000000000000600082015250565b6000612356601883611e5b565b915061236182612320565b602082019050919050565b6000602082019050818103600083015261238581612349565b9050919050565b7f6164647265737320697320616c72656164792077686974656c69737465642100600082015250565b60006123c2601f83611e5b565b91506123cd8261238c565b602082019050919050565b600060208201905081810360008301526123f1816123b5565b905091905056fea2646970667358221220a48adfd54d0d93a2534c336e1f30c4b6584579838531b093e78467bac3a8d23b64736f6c63430008090033",
  "linkReferences": {},
  "deployedLinkReferences": {}
}