{
  "_format": "hh-sol-artifact-1",
  "contractName": "InternExchange",
  "sourceName": "contracts/InternExchange.sol",
  "abi": [
    {
      "inputs": [
        {
          "internalType": "address",
          "name": "_token",
          "type": "address"
        },
        {
          "internalType": "address",
          "name": "_stakingToken",
          "type": "address"
        }
      ],
      "stateMutability": "nonpayable",
      "type": "constructor"
    },
    {
      "anonymous": false,
      "inputs": [
        {
          "indexed": true,
          "internalType": "address",
          "name": "owner",
          "type": "address"
        },
        {
          "indexed": true,
          "internalType": "address",
          "name": "spender",
          "type": "address"
        },
        {
          "indexed": false,
          "internalType": "uint256",
          "name": "value",
          "type": "uint256"
        }
      ],
      "name": "Approval",
      "type": "event"
    },
    {
      "anonymous": false,
      "inputs": [
        {
          "indexed": true,
          "internalType": "address",
          "name": "from",
          "type": "address"
        },
        {
          "indexed": true,
          "internalType": "address",
          "name": "to",
          "type": "address"
        },
        {
          "indexed": false,
          "internalType": "uint256",
          "name": "value",
          "type": "uint256"
        }
      ],
      "name": "Transfer",
      "type": "event"
    },
    {
      "inputs": [
        {
          "internalType": "uint256",
          "name": "_tokenAmount",
          "type": "uint256"
        }
      ],
      "name": "addLiquidity",
      "outputs": [
        {
          "internalType": "uint256",
          "name": "",
          "type": "uint256"
        }
      ],
      "stateMutability": "payable",
      "type": "function"
    },
    {
      "inputs": [
        {
          "internalType": "address",
          "name": "",
          "type": "address"
        }
      ],
      "name": "addressToStaked",
      "outputs": [
        {
          "internalType": "uint256",
          "name": "",
          "type": "uint256"
        }
      ],
      "stateMutability": "view",
      "type": "function"
    },
    {
      "inputs": [
        {
          "internalType": "address",
          "name": "",
          "type": "address"
        }
      ],
      "name": "addressToTime",
      "outputs": [
        {
          "internalType": "uint256",
          "name": "",
          "type": "uint256"
        }
      ],
      "stateMutability": "view",
      "type": "function"
    },
    {
      "inputs": [
        {
          "internalType": "address",
          "name": "owner",
          "type": "address"
        },
        {
          "internalType": "address",
          "name": "spender",
          "type": "address"
        }
      ],
      "name": "allowance",
      "outputs": [
        {
          "internalType": "uint256",
          "name": "",
          "type": "uint256"
        }
      ],
      "stateMutability": "view",
      "type": "function"
    },
    {
      "inputs": [
        {
          "internalType": "address",
          "name": "spender",
          "type": "address"
        },
        {
          "internalType": "uint256",
          "name": "amount",
          "type": "uint256"
        }
      ],
      "name": "approve",
      "outputs": [
        {
          "internalType": "bool",
          "name": "",
          "type": "bool"
        }
      ],
      "stateMutability": "nonpayable",
      "type": "function"
    },
    {
      "inputs": [
        {
          "internalType": "address",
          "name": "account",
          "type": "address"
        }
      ],
      "name": "balanceOf",
      "outputs": [
        {
          "internalType": "uint256",
          "name": "",
          "type": "uint256"
        }
      ],
      "stateMutability": "view",
      "type": "function"
    },
    {
      "inputs": [],
      "name": "decimals",
      "outputs": [
        {
          "internalType": "uint8",
          "name": "",
          "type": "uint8"
        }
      ],
      "stateMutability": "view",
      "type": "function"
    },
    {
      "inputs": [
        {
          "internalType": "address",
          "name": "spender",
          "type": "address"
        },
        {
          "internalType": "uint256",
          "name": "subtractedValue",
          "type": "uint256"
        }
      ],
      "name": "decreaseAllowance",
      "outputs": [
        {
          "internalType": "bool",
          "name": "",
          "type": "bool"
        }
      ],
      "stateMutability": "nonpayable",
      "type": "function"
    },
    {
      "inputs": [
        {
          "internalType": "uint256",
          "name": "_minTokens",
          "type": "uint256"
        },
        {
          "internalType": "address",
          "name": "_recipient",
          "type": "address"
        }
      ],
      "name": "ethToTokenTransfer",
      "outputs": [],
      "stateMutability": "payable",
      "type": "function"
    },
    {
      "inputs": [],
      "name": "factoryAddress",
      "outputs": [
        {
          "internalType": "address",
          "name": "",
          "type": "address"
        }
      ],
      "stateMutability": "view",
      "type": "function"
    },
    {
      "inputs": [
        {
          "internalType": "uint256",
          "name": "tokensSold",
          "type": "uint256"
        }
      ],
      "name": "getEtherAmount",
      "outputs": [
        {
          "internalType": "uint256",
          "name": "",
          "type": "uint256"
        }
      ],
      "stateMutability": "view",
      "type": "function"
    },
    {
      "inputs": [
        {
          "internalType": "address",
          "name": "_user",
          "type": "address"
        }
      ],
      "name": "getStakedAmount",
      "outputs": [
        {
          "internalType": "uint256",
          "name": "",
          "type": "uint256"
        }
      ],
      "stateMutability": "view",
      "type": "function"
    },
    {
      "inputs": [
        {
          "internalType": "uint256",
          "name": "etherSold",
          "type": "uint256"
        }
      ],
      "name": "getTokenAmount",
      "outputs": [
        {
          "internalType": "uint256",
          "name": "",
          "type": "uint256"
        }
      ],
      "stateMutability": "view",
      "type": "function"
    },
    {
      "inputs": [],
      "name": "getTokenBalance",
      "outputs": [
        {
          "internalType": "uint256",
          "name": "",
          "type": "uint256"
        }
      ],
      "stateMutability": "view",
      "type": "function"
    },
    {
      "inputs": [
        {
          "internalType": "address",
          "name": "spender",
          "type": "address"
        },
        {
          "internalType": "uint256",
          "name": "addedValue",
          "type": "uint256"
        }
      ],
      "name": "increaseAllowance",
      "outputs": [
        {
          "internalType": "bool",
          "name": "",
          "type": "bool"
        }
      ],
      "stateMutability": "nonpayable",
      "type": "function"
    },
    {
      "inputs": [],
      "name": "name",
      "outputs": [
        {
          "internalType": "string",
          "name": "",
          "type": "string"
        }
      ],
      "stateMutability": "view",
      "type": "function"
    },
    {
      "inputs": [
        {
          "internalType": "uint256",
          "name": "_amount",
          "type": "uint256"
        }
      ],
      "name": "removeLiquidity",
      "outputs": [
        {
          "internalType": "uint256",
          "name": "",
          "type": "uint256"
        },
        {
          "internalType": "uint256",
          "name": "",
          "type": "uint256"
        }
      ],
      "stateMutability": "nonpayable",
      "type": "function"
    },
    {
      "inputs": [],
      "name": "stakingTokenAddress",
      "outputs": [
        {
          "internalType": "address",
          "name": "",
          "type": "address"
        }
      ],
      "stateMutability": "view",
      "type": "function"
    },
    {
      "inputs": [
        {
          "internalType": "uint256",
          "name": "_minTokenAmount",
          "type": "uint256"
        }
      ],
      "name": "swapEtherToToken",
      "outputs": [],
      "stateMutability": "payable",
      "type": "function"
    },
    {
      "inputs": [
        {
          "internalType": "uint256",
          "name": "_tokensSold",
          "type": "uint256"
        },
        {
          "internalType": "uint256",
          "name": "_minEtherAmount",
          "type": "uint256"
        }
      ],
      "name": "swapTokenToEther",
      "outputs": [],
      "stateMutability": "nonpayable",
      "type": "function"
    },
    {
      "inputs": [
        {
          "internalType": "uint256",
          "name": "_tokensSold",
          "type": "uint256"
        },
        {
          "internalType": "uint256",
          "name": "_minTokenBought",
          "type": "uint256"
        },
        {
          "internalType": "address",
          "name": "_tokenAddress",
          "type": "address"
        }
      ],
      "name": "swapTokenToToken",
      "outputs": [],
      "stateMutability": "nonpayable",
      "type": "function"
    },
    {
      "inputs": [],
      "name": "symbol",
      "outputs": [
        {
          "internalType": "string",
          "name": "",
          "type": "string"
        }
      ],
      "stateMutability": "view",
      "type": "function"
    },
    {
      "inputs": [],
      "name": "tokenAddress",
      "outputs": [
        {
          "internalType": "address",
          "name": "",
          "type": "address"
        }
      ],
      "stateMutability": "view",
      "type": "function"
    },
    {
      "inputs": [],
      "name": "totalSupply",
      "outputs": [
        {
          "internalType": "uint256",
          "name": "",
          "type": "uint256"
        }
      ],
      "stateMutability": "view",
      "type": "function"
    },
    {
      "inputs": [
        {
          "internalType": "address",
          "name": "to",
          "type": "address"
        },
        {
          "internalType": "uint256",
          "name": "amount",
          "type": "uint256"
        }
      ],
      "name": "transfer",
      "outputs": [
        {
          "internalType": "bool",
          "name": "",
          "type": "bool"
        }
      ],
      "stateMutability": "nonpayable",
      "type": "function"
    },
    {
      "inputs": [
        {
          "internalType": "address",
          "name": "from",
          "type": "address"
        },
        {
          "internalType": "address",
          "name": "to",
          "type": "address"
        },
        {
          "internalType": "uint256",
          "name": "amount",
          "type": "uint256"
        }
      ],
      "name": "transferFrom",
      "outputs": [
        {
          "internalType": "bool",
          "name": "",
          "type": "bool"
        }
      ],
      "stateMutability": "nonpayable",
      "type": "function"
    },
    {
      "inputs": [],
      "name": "withdrawStakedTokens",
      "outputs": [],
      "stateMutability": "nonpayable",
      "type": "function"
    }
  ],
  "bytecode": "0x60806040523480156200001157600080fd5b50604051620058be380380620058be8339818101604052810190620000379190620006b1565b6040518060400160405280600d81526020017f496e7465726e537761702d5631000000000000000000000000000000000000008152506040518060400160405280600781526020017f494e54532d5631000000000000000000000000000000000000000000000000008152508160039080519060200190620000bb92919062000597565b508060049080519060200190620000d492919062000597565b5050506200010b7f2097ccab18646517aa3a0fb77fee28f663bf86a36ae7f26fc8ca4b018c937a0860001b6200059460201b60201c565b6200013f7f24c3c71b918c8add3f2eb42dbecae1c56a48976e9f142ef6a81b44cb01a1106660001b6200059460201b60201c565b620001737fc3382234fa932cc95665139761f63304dd86ac0929db95a1989953e5c2a4faf260001b6200059460201b60201c565b620001a77f25db4dcffa2a2068d66d4e85ef2a88261567f51e6936ce931066422d7645980460001b6200059460201b60201c565b600073ffffffffffffffffffffffffffffffffffffffff168273ffffffffffffffffffffffffffffffffffffffff1614156200021a576040517f08c379a0000000000000000000000000000000000000000000000000000000008152600401620002119062000759565b60405180910390fd5b6200024e7f0925ad47ab5077e8a1d1bbb592fa2f8ac710b2b9aafbbe1dbf0a418fad190ade60001b6200059460201b60201c565b620002827ffd00b4060b5a47b88991d35e18676fde565623b9d2810f1fe4fba6a7f7df35ed60001b6200059460201b60201c565b620002b67f322c8c40868472a2c8a88e8ef6924c29137e347da026cb5c76e48644cf356df260001b6200059460201b60201c565b620002ea7f371ba94620643ed844a603b6ad7dbff62c4bfa22045cebedd51ba849c30af60060001b6200059460201b60201c565b600073ffffffffffffffffffffffffffffffffffffffff168173ffffffffffffffffffffffffffffffffffffffff1614156200035d576040517f08c379a0000000000000000000000000000000000000000000000000000000008152600401620003549062000759565b60405180910390fd5b620003917f8be0e0c5329baad7f329c04aa4cce0b23087ba1a3957fb4322e44e53ae6584e060001b6200059460201b60201c565b620003c57f556bdf6ad1c5a4ee3ff54385ea5c3ecb649217b7a255f3f880aa5220abf554ce60001b6200059460201b60201c565b620003f97f42e5692974a400d2f2714cae6d1edcdc57f93b32d3c26c3517b5f6457004ca8a60001b6200059460201b60201c565b81600560006101000a81548173ffffffffffffffffffffffffffffffffffffffff021916908373ffffffffffffffffffffffffffffffffffffffff1602179055506200046e7f72c452989be552225149ba22e98a8d5f06a5e87d339e9528d88d52bcc1fba6ec60001b6200059460201b60201c565b620004a27f3914d52960b05c960010bdab0ac1ef5d820a16651e176e5dde246ba66a2fd77960001b6200059460201b60201c565b80600760006101000a81548173ffffffffffffffffffffffffffffffffffffffff021916908373ffffffffffffffffffffffffffffffffffffffff160217905550620005177f144558807d8d761dec936e3f9140a6b260e8fc61db88ff08e090284813b870e860001b6200059460201b60201c565b6200054b7ff42c6af0b0f064ab2340a30d6bfd2e3dc34ae17806fd6e189d5b1057165882e560001b6200059460201b60201c565b33600660006101000a81548173ffffffffffffffffffffffffffffffffffffffff021916908373ffffffffffffffffffffffffffffffffffffffff1602179055505050620007e0565b50565b828054620005a590620007aa565b90600052602060002090601f016020900481019282620005c9576000855562000615565b82601f10620005e457805160ff191683800117855562000615565b8280016001018555821562000615579182015b8281111562000614578251825591602001919060010190620005f7565b5b50905062000624919062000628565b5090565b5b808211156200064357600081600090555060010162000629565b5090565b600080fd5b600073ffffffffffffffffffffffffffffffffffffffff82169050919050565b600062000679826200064c565b9050919050565b6200068b816200066c565b81146200069757600080fd5b50565b600081519050620006ab8162000680565b92915050565b60008060408385031215620006cb57620006ca62000647565b5b6000620006db858286016200069a565b9250506020620006ee858286016200069a565b9150509250929050565b600082825260208201905092915050565b7f77726f6e67206164647265737321000000000000000000000000000000000000600082015250565b600062000741600e83620006f8565b91506200074e8262000709565b602082019050919050565b60006020820190508181036000830152620007748162000732565b9050919050565b7f4e487b7100000000000000000000000000000000000000000000000000000000600052602260045260246000fd5b60006002820490506001821680620007c357607f821691505b60208210811415620007da57620007d96200077b565b5b50919050565b6150ce80620007f06000396000f3fe60806040526004361061019c5760003560e01c806370a08231116100ec5780639d76ea581161008a578063c2507ac111610064578063c2507ac114610604578063c7b3984a14610641578063c81c590d1461066a578063dd62ed3e146106a75761019c565b80639d76ea581461055f578063a457c2d71461058a578063a9059cbb146105c75761019c565b806385dc5ff0116100c657806385dc5ff01461048e57806395d89b41146104cb578063966dae0e146104f65780639c8f9f23146105215761019c565b806370a08231146103fd578063803fa8181461043a57806382b2e257146104635761019c565b8063389d9a401161015957806351c6590a1161013357806351c6590a1461036f578063528693961461039f5780635298b869146103bb5780636a410610146103e65761019c565b8063389d9a40146102d957806339509351146102f55780634da6a556146103325761019c565b806306fdde03146101a1578063095ea7b3146101cc57806309b9feca1461020957806318160ddd1461024657806323b872dd14610271578063313ce567146102ae575b600080fd5b3480156101ad57600080fd5b506101b66106e4565b6040516101c3919061415d565b60405180910390f35b3480156101d857600080fd5b506101f360048036038101906101ee9190614218565b610776565b6040516102009190614273565b60405180910390f35b34801561021557600080fd5b50610230600480360381019061022b919061428e565b610799565b60405161023d91906142ca565b60405180910390f35b34801561025257600080fd5b5061025b6107b1565b60405161026891906142ca565b60405180910390f35b34801561027d57600080fd5b50610298600480360381019061029391906142e5565b6107bb565b6040516102a59190614273565b60405180910390f35b3480156102ba57600080fd5b506102c36107ea565b6040516102d09190614354565b60405180910390f35b6102f360048036038101906102ee919061436f565b6107f3565b005b34801561030157600080fd5b5061031c60048036038101906103179190614218565b610885565b6040516103299190614273565b60405180910390f35b34801561033e57600080fd5b506103596004803603810190610354919061428e565b6108bc565b60405161036691906142ca565b60405180910390f35b610389600480360381019061038491906143af565b610abb565b60405161039691906142ca565b60405180910390f35b6103b960048036038101906103b491906143af565b61156d565b005b3480156103c757600080fd5b506103d06115fe565b6040516103dd91906143eb565b60405180910390f35b3480156103f257600080fd5b506103fb611624565b005b34801561040957600080fd5b50610424600480360381019061041f919061428e565b61198d565b60405161043191906142ca565b60405180910390f35b34801561044657600080fd5b50610461600480360381019061045c9190614406565b6119d5565b005b34801561046f57600080fd5b50610478611d6e565b60405161048591906142ca565b60405180910390f35b34801561049a57600080fd5b506104b560048036038101906104b0919061428e565b611ea4565b6040516104c291906142ca565b60405180910390f35b3480156104d757600080fd5b506104e0611ebc565b6040516104ed919061415d565b60405180910390f35b34801561050257600080fd5b5061050b611f4e565b60405161051891906143eb565b60405180910390f35b34801561052d57600080fd5b50610548600480360381019061054391906143af565b611f74565b604051610556929190614446565b60405180910390f35b34801561056b57600080fd5b506105746124bf565b60405161058191906143eb565b60405180910390f35b34801561059657600080fd5b506105b160048036038101906105ac9190614218565b6124e5565b6040516105be9190614273565b60405180910390f35b3480156105d357600080fd5b506105ee60048036038101906105e99190614218565b61255c565b6040516105fb9190614273565b60405180910390f35b34801561061057600080fd5b5061062b600480360381019061062691906143af565b61257f565b60405161063891906142ca565b60405180910390f35b34801561064d57600080fd5b506106686004803603810190610663919061446f565b612711565b005b34801561067657600080fd5b50610691600480360381019061068c91906143af565b612c40565b60405161069e91906142ca565b60405180910390f35b3480156106b357600080fd5b506106ce60048036038101906106c991906144c2565b612dd2565b6040516106db91906142ca565b60405180910390f35b6060600380546106f390614531565b80601f016020809104026020016040519081016040528092919081815260200182805461071f90614531565b801561076c5780601f106107415761010080835404028352916020019161076c565b820191906000526020600020905b81548152906001019060200180831161074f57829003601f168201915b5050505050905090565b600080610781612e59565b905061078e818585612e61565b600191505092915050565b60096020528060005260406000206000915090505481565b6000600254905090565b6000806107c6612e59565b90506107d385828561302c565b6107de8585856130b8565b60019150509392505050565b60006012905090565b61081f7f984b6ff59e29f251ae7a8c3a269bf4b34781e333c19392973f1f7d5be596b31960001b613339565b61084b7f396cb2c4c08f047fc4c3ff42ed813bdda37914097c41da65f709c8daa51d6a8d60001b613339565b6108777f2bafca7f0b26eb7bd7a27d025cfcc1b6228e98790c14fdfc5dc8ea2e5e6c169760001b613339565b610881828261333c565b5050565b600080610890612e59565b90506108b18185856108a28589612dd2565b6108ac9190614592565b612e61565b600191505092915050565b60006108ea7f7892b82bc290afceafa6380a7718d0828c6d16bc82eb29eaa4e9078697d282fe60001b613339565b6109167f67021ed188273063ce073d3207bcbf24dd1fb23e70c049e5b3d51661abff69cf60001b613339565b6109427f7050b6f68e937f77638efa483bc1a27de71447711385e47402076226ce91c02860001b613339565b6000600860008473ffffffffffffffffffffffffffffffffffffffff1673ffffffffffffffffffffffffffffffffffffffff168152602001908152602001600020544261098f91906145e8565b90506109bd7f9b9a15030bc4aac4cbfcabe2848adc5673d8dab3e4ea40ee9d1e6a2d6a5bdc6f60001b613339565b6109e97f5c1e2b35e2e47df0c68cc18844357decbce10ea17aabb48f37be592dbc803cfb60001b613339565b600062015180826109f98661198d565b610a03919061461c565b610a0d91906146a5565b600960008673ffffffffffffffffffffffffffffffffffffffff1673ffffffffffffffffffffffffffffffffffffffff16815260200190815260200160002054610a579190614592565b9050610a857ff2e03b03150a10abb8adf09ada1c8ce572d71ad1e56c6948d1f0c863983445eb60001b613339565b610ab17ff7540bfb61d756a54ce18af4f84095f1ed0dbedf7a3777844127c77a2ccebf9060001b613339565b8092505050919050565b6000610ae97f69fe811344feea171d12489d8e67c931d51b4dcafdca42e19c0a6aae6599017d60001b613339565b610b157fbf14bac5f635604823003ed5499e0709bdb3aac649c8c215cfc3fca22c2a26e060001b613339565b610b417f01ae5e66d5f8a181233bccc59fa07078ea22f82b65b9d002a9da051e6237b7ca60001b613339565b6000610b4b611d6e565b1415610ea157610b7d7ff79d69393f58b349b85d7e808fd1cb786b111a4dff442b992c52b2613784bf4760001b613339565b610ba97f6a1b58afcd97ceeedc61e2f165782ddcabea7894a843e687b870f25999b8a05b60001b613339565b610bd57f3c0c25563be52a5b2a727e0cd76783d401b1f82759dca0c2c69dfd7cc5e48e0b60001b613339565b6000600560009054906101000a900473ffffffffffffffffffffffffffffffffffffffff169050610c287f565c7f6961b62957b0f17438f6f02ed12c311d18707e371532251d1ee4b3d52c60001b613339565b610c547faa385647cc9bf2f2cacb61479d4fe3b4e02dabf1e50b56c64ffcc0f2c08fa28960001b613339565b8073ffffffffffffffffffffffffffffffffffffffff166323b872dd3330866040518463ffffffff1660e01b8152600401610c91939291906146d6565b602060405180830381600087803b158015610cab57600080fd5b505af1158015610cbf573d6000803e3d6000fd5b505050506040513d601f19601f82011682018060405250810190610ce39190614739565b50610d107f2dd574e4e54d18c784ac36f061867bd1240555569d45e45bb9a0fd3eae33218760001b613339565b610d3c7f1bc0338c4c994124e1618cc7b88b15748b045b34ddb034fb5b14b94e54c5d9a860001b613339565b42600860003373ffffffffffffffffffffffffffffffffffffffff1673ffffffffffffffffffffffffffffffffffffffff16815260200190815260200160002081905550610dac7f96b756e0404f81d17eb1ad92e747bdda2201c21050b9928e18fbca0279b50bc760001b613339565b610dd87f867a1a39f3121313ed488e903aa79736ea32b9ce77852c633a5926f86625213660001b613339565b6000479050610e097ff5d6a56ba1c8928ba5f14b6c2c38570ef0fb7bf2456b6679c1953a05ecac659160001b613339565b610e357f7fba9b59d4def4f5d1f94481d3d653f268a6a7771c981c8fb39cfa699cdc77a660001b613339565b610e3f338261363f565b610e6b7f800b0769585d14b64c4925c7e8854a830ec3e59b0d0aa20c39670fccd3016e7560001b613339565b610e977f13f62193d3353ae033b82e1cad0920a4be7b5ab830055581a5d09aff9b11585d60001b613339565b8092505050611568565b610ecd7fcef640b8a4e73e304887c67a43b792b8de4dc2154fd21b2fc7dba73821448db060001b613339565b610ef97f759424558bfaabd30698a1e09a1ef6addf3a617d31a12904d99a2e9b016af50f60001b613339565b610f257fcac02d83b1b6c1c2eb6c43cd374d00ee2b7e374041bb15945f0df31440d6fe4560001b613339565b60003447610f3391906145e8565b9050610f617f6b762603c05034b80b86c51ee84bfa1ef84ea78e515dc9c7baac728709caca1560001b613339565b610f8d7f3f45b3d710968045a8f8b3f6c92ded288398419a4301a5b6cc0e72bacb86fa9560001b613339565b6000610f97611d6e565b9050610fc57fe8e86137341474bb226adc1efdbe64f96f481ae5d9624de99c3522362ddf516c60001b613339565b610ff17fbab7e383414be922e48696817636e2638fe6933608b3ea90354b4ebf2d870c8e60001b613339565b6000828234611000919061461c565b61100a91906146a5565b90506110387f722b316c9757107b277e77ea4ba2e8149816f9496bed8120fe93ebd3d9b8193160001b613339565b6110647f9fa11bc5d8081b02f05532457c299301aea5675065bb9e1eaeb42bdf91b70c3560001b613339565b6110907f707c9a823d9dd21f6d2bdba69e675e63d0b077cb8f3f567d442c32840ea5ddac60001b613339565b808510156110d3576040517f08c379a00000000000000000000000000000000000000000000000000000000081526004016110ca906147b2565b60405180910390fd5b6110ff7fcc381c5dbc1cfa1134d9fdaf793b0d0e19a90ffd640c7418c4858db1bc6c1e9860001b613339565b61112b7fa01df9bbc7ded2ca21ee02007ed4b40e8f90e08611c6c5f6d64c3fb3840b806960001b613339565b6111577fe58fde907d92f5fd6d237f4c15c5970ebf74c00643d4779b8ce215ebb46bdf7e60001b613339565b6000600560009054906101000a900473ffffffffffffffffffffffffffffffffffffffff1690506111aa7f9846112d653687b07d6c870cb64842874eddd0f0c0b7028f03a1fe4f10d8470860001b613339565b6111d67f4dc38379644bc59c0d679abadadfd2d7fddb8734b5664e8d05080402d4ff610060001b613339565b8073ffffffffffffffffffffffffffffffffffffffff166323b872dd3330856040518463ffffffff1660e01b8152600401611213939291906146d6565b602060405180830381600087803b15801561122d57600080fd5b505af1158015611241573d6000803e3d6000fd5b505050506040513d601f19601f820116820180604052508101906112659190614739565b506112927f58401e84f0627c125e10d57877a426c937b7eda8cc5de3b581f0faf68594f6db60001b613339565b6112be7f405db1a707fac1d418f1d75099f50871dbc450ad17f86f28a4b9c549a26f714b60001b613339565b60006112c93361198d565b141561139c576112fb7f38e4dd8c9d98a9e8f499b47e5f2848f33011c5dc20d36a63596d77916c11514a60001b613339565b6113277f762903520fca38edd0d20b30f638e663e0bba1530b832b44f35014caaf4dbde360001b613339565b6113537f6be68ced433efa4ba9c4c48c0c017797627a1db877d444e533bc54a31da0343b60001b613339565b42600860003373ffffffffffffffffffffffffffffffffffffffff1673ffffffffffffffffffffffffffffffffffffffff1681526020019081526020016000208190555061142b565b6113c87fc16a53e3a76661a633d1a9354c76d03f782d53601a7aa1a9f76e83618a6893bd60001b613339565b6113f47fd1cdda56cdfcde389edb354d28b474838bda34d69849e1f2719b25a9aa64424360001b613339565b6114207f215ff911932dccdc0d79be7e60257eaeb1d19e5a4675e444472d9a3ba56f708760001b613339565b6114293361379f565b505b6114577f957075318bd69ced5517174419a66d65248b4ddb43863b8647fa91dca40925da60001b613339565b6114837f61a03113bc915dbe546947c183e4587624c491d1e74d10ae84f70804d457e9b160001b613339565b6000843461148f6107b1565b611499919061461c565b6114a391906146a5565b90506114d17f45b99c49b1d727c92e76adb5ec8a04d5803cd724cc9c9105b4a20dcbdcd61e1060001b613339565b6114fd7f99efab55da65b6fce71a71c29a8780401131b1d3be288e72a5984272198c093960001b613339565b611507338261363f565b6115337fc95c374cd6c55aa4f3d640d2f5f16ef2298eb9fe76f36cfb0d985001c70b1bed60001b613339565b61155f7fa1dd1dc26c803657091761aa0cb8797432723525707911482cec7978e8db8ca560001b613339565b80955050505050505b919050565b6115997f248b0760e48cb1ff2dcbcbaa79638fa8590bb941b20fa253fd1633cbbbcd1c2560001b613339565b6115c57f609ddf4aa4403c04b35c479f605d190f9bddc285db409826f6a906481406862560001b613339565b6115f17f5fb44d52680386dad228093e59dd861525a951f337d5bab46237dd95c897452260001b613339565b6115fb813361333c565b50565b600760009054906101000a900473ffffffffffffffffffffffffffffffffffffffff1681565b6116507f89acc35d055d32cf407a57d01a7b1f829ce59650a8d9be68991209c93119050560001b613339565b61167c7f1e0de2c1498c99152530654e63405ffba7869c975c4e903f1f22ac4e5066353160001b613339565b6116a87f8d63d6f1351b671c00e5914675712ec5f0fc589f5197d500ed34b2154b26853c60001b613339565b6000600760009054906101000a900473ffffffffffffffffffffffffffffffffffffffff1690506116fb7f4d8ad88f2cead6be065de7c568ff21ef9d2be6b8ccc3a05c7378afd7249cc56660001b613339565b6117277f6ee9d920c6716a374ef7d8c14b4f7f573475b9d3ced461329a6cdbcf01faece960001b613339565b60006117323361379f565b90506117607f5ccd0290bdd085d2d8ee87ba720fc18e5e09583b385b2912ecfad9f386a6dd0c60001b613339565b61178c7f7bdc08013c3eacd07717d6672cda96c2fd655140e1e46f18fedc3dcb93d15e4660001b613339565b6117b87fdab7c63eb736af8827ff78afc4913fdfe40f05153a64feedf14be36061c38a4660001b613339565b600081116117fb576040517f08c379a00000000000000000000000000000000000000000000000000000000081526004016117f29061481e565b60405180910390fd5b6118277f88cb68fcb3021ba94261386719990b8c662ddf2cef4093f5765bf6fddfa1434f60001b613339565b6118537f2011aa758369270bb354ca198e890de5e2740a1eb03f3e8a711dde599d91df2460001b613339565b61187f7fc2d1d08d52a48cbc602b13f10dc3dfeeea3b9fc209ca0b8fce0e2abdd13b866f60001b613339565b8173ffffffffffffffffffffffffffffffffffffffff166340c10f1933836040518363ffffffff1660e01b81526004016118ba92919061483e565b600060405180830381600087803b1580156118d457600080fd5b505af11580156118e8573d6000803e3d6000fd5b505050506119187f14fe6a3faec21f5f56ea87b00d55626e77f01c7a4b36007ba6d1368cca31df5460001b613339565b6119447f5ed45c18caf26f9a4bbc5eb9820c2c1113e2fef1f720e3f0466eaff64ce737b260001b613339565b6000600960003373ffffffffffffffffffffffffffffffffffffffff1673ffffffffffffffffffffffffffffffffffffffff168152602001908152602001600020819055505050565b60008060008373ffffffffffffffffffffffffffffffffffffffff1673ffffffffffffffffffffffffffffffffffffffff168152602001908152602001600020549050919050565b611a017fb7fc14aa8437c7210e551d290a432c0404e15113af49c7f006ffb5ede74ba7c360001b613339565b611a2d7f5f2fc0b9a4ab1055a181522ffcd98ec3b93d857c9b9f83d85adfd3d1be01bf3860001b613339565b611a597f3a83892264e493d4e61a4c1c6999c36066722cf2efb45b6ebf16a83a0f59f60a60001b613339565b6000611a63611d6e565b9050611a917fc48281a7a90d099c8cab4f5f3b96c16a058268dfc47f35b64d6f33f013747c9360001b613339565b611abd7f5ccf12b04acdc69494f84a8e7fd78a4c362b5825190863871419425c6a8fbcc660001b613339565b6000611aca8483476139ac565b9050611af87f9764444e2876b14138c8ba406ec0648fb5754b3837fb45105a03279de9e08a8e60001b613339565b611b247fd9784d2749b98fbf1555dbc294067356b9838a84ec30359ed27db0d7b525f5f860001b613339565b611b507fe7591a07e1a60c413536c86602282837a03f837a40861de86124b0fafcc7414f60001b613339565b82811015611b93576040517f08c379a0000000000000000000000000000000000000000000000000000000008152600401611b8a906147b2565b60405180910390fd5b611bbf7fdcfb669722eb042b77eebe08a3cb1a48b22f25003cee8ce5bbf7f59ec536bf0560001b613339565b611beb7fe6a479dc5d9329d7fa129cc8a18acb41e04ed5360a231afbb4c5d5cbfbdafde960001b613339565b611c177f9ae4910fdc8a640893d8af05938ce605805459ccf1571c46db7a27da4613e0c660001b613339565b600560009054906101000a900473ffffffffffffffffffffffffffffffffffffffff1673ffffffffffffffffffffffffffffffffffffffff166323b872dd3330876040518463ffffffff1660e01b8152600401611c76939291906146d6565b602060405180830381600087803b158015611c9057600080fd5b505af1158015611ca4573d6000803e3d6000fd5b505050506040513d601f19601f82011682018060405250810190611cc89190614739565b50611cf57fd4f0f285d1fc8b0e25c2defe1748d3adad71113c109a0a268008917e2908946a60001b613339565b611d217f4df02d8b943657774a998cb6c9102ffa4962107cd94aa8105a7b9bdfd93a546760001b613339565b3373ffffffffffffffffffffffffffffffffffffffff166108fc829081150290604051600060405180830381858888f19350505050158015611d67573d6000803e3d6000fd5b5050505050565b6000611d9c7ff7cc923c56946bf5e22e819c40c2e9917f6897724eef2134a94091abbd814f0c60001b613339565b611dc87f7a7b631bc39a7e86b563916ed9c11fc4b41fb88bb96dc2163be814e582273a5c60001b613339565b611df47f2d232061bc1c2afc4438bf7c7871a59d92ac9d77c62954adcbb117abe775e11360001b613339565b600560009054906101000a900473ffffffffffffffffffffffffffffffffffffffff1673ffffffffffffffffffffffffffffffffffffffff166370a08231306040518263ffffffff1660e01b8152600401611e4f91906143eb565b60206040518083038186803b158015611e6757600080fd5b505afa158015611e7b573d6000803e3d6000fd5b505050506040513d601f19601f82011682018060405250810190611e9f919061487c565b905090565b60086020528060005260406000206000915090505481565b606060048054611ecb90614531565b80601f0160208091040260200160405190810160405280929190818152602001828054611ef790614531565b8015611f445780601f10611f1957610100808354040283529160200191611f44565b820191906000526020600020905b815481529060010190602001808311611f2757829003601f168201915b5050505050905090565b600660009054906101000a900473ffffffffffffffffffffffffffffffffffffffff1681565b600080611fa37fa372846144e6d7b6a180f3a358d85d45456ff99d14a79892378c56fe9a08555060001b613339565b611fcf7fe63edf6d9fbe4a3000873064199d248e85b734a0f54a2c81be221479f54c621a60001b613339565b611ffb7fe74bf13136b49fdcf85c64dc31c21b39bada244a51145de36c5fccbf7a8631d960001b613339565b6120277f5b6474c38048f5caeb0090a92a408fae92922ecfa53811c7831bbead8cd2747b60001b613339565b6000831161206a576040517f08c379a0000000000000000000000000000000000000000000000000000000008152600401612061906148f5565b60405180910390fd5b6120967f241f304ab4533094f5be0dfa70bfd51a471de20dc1c9bd21a43ec4e3946c294660001b613339565b6120c27fa4e6a41b1cf4f6e44a27a5f588d17292a02d3df302148f030f98ac04836c23d960001b613339565b6120ee7f953ce0449c7d9a74ab6c0c5e166c8f77d935b45e0bf492945bbd27592f32d44660001b613339565b60006120f86107b1565b8447612104919061461c565b61210e91906146a5565b905061213c7f704fabcfb13b99d818789cf6168818ffedf32abf720ac1dbbd8b8670d9b8ee0160001b613339565b6121687f4f75d63c5aee5c64511ec64b6323671c92d1dfbaf17d59810ef85ae970e4b32f60001b613339565b60006121726107b1565b8561217b611d6e565b612185919061461c565b61218f91906146a5565b90506121bd7ff8267795390d482d2f87ae01d25a91a49b401cac4bebf5006229f609a978276d60001b613339565b6121e97ffb419b2a87b444caa056c8d68ca29f02d38e8860f176eb824108eeb16b89c5c760001b613339565b6121f23361379f565b5061221f7f67f74fd37294ba6855a7076f3c4867c0db1021bcc75671a2ed98bc7abfea196760001b613339565b61224b7f7e8a734fbd0b2fe0825e82075c0f2c89e8bd4f46cefe3ac3ff0bc14b3472b67760001b613339565b6122553386613c90565b6122817f5d43f5e5426abe8eec2f29fd1787a396c67e51e40d1259c4535a76d6447293af60001b613339565b6122ad7f30374f6f75cb5d6c71b78d0060659a33538014fd05452c3351c0d8c841dd4c2c60001b613339565b3373ffffffffffffffffffffffffffffffffffffffff166108fc839081150290604051600060405180830381858888f193505050501580156122f3573d6000803e3d6000fd5b506123207fc421bd52be790f925a6bf45518c50375ca090aa6125c9a4ff76cc2d794d418c060001b613339565b61234c7f98d4b151bd2d2a1aacf999094266f437abf577f06dedcb1d66b1c3c163374ed860001b613339565b6000600560009054906101000a900473ffffffffffffffffffffffffffffffffffffffff16905061239f7fd81cf06678adde50ddb58b6b7575ea351030518998413b6d8955bc4778dc969c60001b613339565b6123cb7f2f37de7909442ef2c9b47958a7a9618a5872f0452265e543f8376d77bedcd91e60001b613339565b8073ffffffffffffffffffffffffffffffffffffffff1663a9059cbb33846040518363ffffffff1660e01b815260040161240692919061483e565b602060405180830381600087803b15801561242057600080fd5b505af1158015612434573d6000803e3d6000fd5b505050506040513d601f19601f820116820180604052508101906124589190614739565b506124857f88f06d93e14184998bf24b6dfa2337e073af889190686c8082b84d957c398f2660001b613339565b6124b17f795a6ca659c01d11b4b78d5c79409c91aba142f86e43dbee9f85735142d5d56c60001b613339565b828294509450505050915091565b600560009054906101000a900473ffffffffffffffffffffffffffffffffffffffff1681565b6000806124f0612e59565b905060006124fe8286612dd2565b905083811015612543576040517f08c379a000000000000000000000000000000000000000000000000000000000815260040161253a90614987565b60405180910390fd5b6125508286868403612e61565b60019250505092915050565b600080612567612e59565b90506125748185856130b8565b600191505092915050565b60006125ad7ff6104dac8b8c4278f7a9c32ccaf85a4aef47afbb5377445a80158cfa24b6258660001b613339565b6125d97f0a7275ed5c2326ec5285079fe764071d0574cb0dbcfb87a125cb82cafbde574160001b613339565b6126057f54561db51d26cb3c4cee6b30e27301714133947e0eafbd30575ac4bf55c7901560001b613339565b6126317ff0db0d21ed7e1a4422e909be8c9091719371d1d5a5e97c4db3ceceafc8e0befc60001b613339565b60008211612674576040517f08c379a000000000000000000000000000000000000000000000000000000000815260040161266b906149f3565b60405180910390fd5b6126a07fd303edb523eedeeadaee7ca2f8b8655277a826ffcaeae232ddde24e83c8823d560001b613339565b6126cc7fd9dc9dc4d1c54442201dc7d912f3593fdef30cfdbcf36b31aea83480b692fc3960001b613339565b6126f87f05ec6959e2f3aaef1ab6a126fcaaac3fadd359de4fc5cdfd36077028f2517b8360001b613339565b61270a8247612705611d6e565b6139ac565b9050919050565b61273d7f2ba568f47a8aa31acf7023cd3a62b223500237bf3ed4f850ee0a9304c37b492d60001b613339565b6127697fd34eaf24db9de1fe63dc214b80b75df0b1b44b2117552f8aef84b65ce6c3691c60001b613339565b6127957f7055fa9f38f298754ff0cd8c7810427bf0ae67bd72e97bfedbc20a661b8e6c5560001b613339565b6000600660009054906101000a900473ffffffffffffffffffffffffffffffffffffffff1673ffffffffffffffffffffffffffffffffffffffff166306f2bf62836040518263ffffffff1660e01b81526004016127f291906143eb565b602060405180830381600087803b15801561280c57600080fd5b505af1158015612820573d6000803e3d6000fd5b505050506040513d601f19601f820116820180604052508101906128449190614a28565b90506128717e36e5618674afc8dc74bc2ed5699156573ed9ff42b39ff4587accca658d8f3960001b613339565b61289d7fe1a50cc2be5a08bf0926aff63cc86a420f6318e0a184560e90c9b672e324833960001b613339565b6128c97fedc8e2b62e8b5cba79d6f8ea16159fb64462fee4a6c3d332d2646b5ff348a1bb60001b613339565b3073ffffffffffffffffffffffffffffffffffffffff168173ffffffffffffffffffffffffffffffffffffffff16141580156129325750600073ffffffffffffffffffffffffffffffffffffffff168173ffffffffffffffffffffffffffffffffffffffff1614155b612971576040517f08c379a000000000000000000000000000000000000000000000000000000000815260040161296890614aa1565b60405180910390fd5b61299d7f9e791d0b49592b936de5b6854bc9c5558c9f5f26b1964355182c250cd8a0c8b760001b613339565b6129c97fcce9c9ae48657070f5d8903ae1b32f0b4080ed295c3799a46c97e9fc1981264c60001b613339565b6129f57fdbd0a474282140e3990ceb1868ab5881ee9a417060f8241cf698669669a475d060001b613339565b60006129ff611d6e565b9050612a2d7fcf493fb071ee83c20c26ca346f298b20487c73e65b856e163d28083f6c23903e60001b613339565b612a597f9784dc593aa5aa0468f7bfa42651476d16442befd7ee3b5646bfb90c17a59aba60001b613339565b6000612a668683476139ac565b9050612a947f4da7fcd364388c638be893ee61d54515c1d8f8e5d3df0cdaa173b479afa187ad60001b613339565b612ac07f76a4d232304ae59714c6181261b750804d2834ccd0d4527e8bf7193993a00cce60001b613339565b600560009054906101000a900473ffffffffffffffffffffffffffffffffffffffff1673ffffffffffffffffffffffffffffffffffffffff166323b872dd3330896040518463ffffffff1660e01b8152600401612b1f939291906146d6565b602060405180830381600087803b158015612b3957600080fd5b505af1158015612b4d573d6000803e3d6000fd5b505050506040513d601f19601f82011682018060405250810190612b719190614739565b50612b9e7ffb959fb78712d6b240ee7b0cf1e8966c6ff5ac87683771a2987750e28b04456a60001b613339565b612bca7f87a0ff856beb87ef3fb78f48d8633fa4d8315176c13c76c548f44d6e87f0098660001b613339565b8273ffffffffffffffffffffffffffffffffffffffff1663389d9a408287336040518463ffffffff1660e01b8152600401612c06929190614ac1565b6000604051808303818588803b158015612c1f57600080fd5b505af1158015612c33573d6000803e3d6000fd5b5050505050505050505050565b6000612c6e7f1183ef1bd53c236f4464e78365d783e589ea0d2e658c8ebc552d49daf0611faf60001b613339565b612c9a7ff97f5aaa0d5c12c806470e761b1dab73af935bd5943ed79d78ea6919e694db9b60001b613339565b612cc67f45faefbf1ffc8e757f21843ceec1e105995335db53d46603c5a277d76cf8d60760001b613339565b612cf27f01b3a2c3e75a273752abe9d5be4ed95f736d4be2a74206614b7ddef506d420df60001b613339565b60008211612d35576040517f08c379a0000000000000000000000000000000000000000000000000000000008152600401612d2c90614b36565b60405180910390fd5b612d617f786d1371eb2d3737e4409a539f1d398b9fa9eb25861922250fe3afd18d9be8df60001b613339565b612d8d7f25d91695c288dffd2ae4551d5e29fefa0438e37b45a86982104066c5bc55f54e60001b613339565b612db97f27f3e8bb1a88cdbe5add21221cf13c6aa07977c017782e21055eae1d8acf28d660001b613339565b612dcb82612dc5611d6e565b476139ac565b9050919050565b6000600160008473ffffffffffffffffffffffffffffffffffffffff1673ffffffffffffffffffffffffffffffffffffffff16815260200190815260200160002060008373ffffffffffffffffffffffffffffffffffffffff1673ffffffffffffffffffffffffffffffffffffffff16815260200190815260200160002054905092915050565b600033905090565b600073ffffffffffffffffffffffffffffffffffffffff168373ffffffffffffffffffffffffffffffffffffffff161415612ed1576040517f08c379a0000000000000000000000000000000000000000000000000000000008152600401612ec890614bc8565b60405180910390fd5b600073ffffffffffffffffffffffffffffffffffffffff168273ffffffffffffffffffffffffffffffffffffffff161415612f41576040517f08c379a0000000000000000000000000000000000000000000000000000000008152600401612f3890614c5a565b60405180910390fd5b80600160008573ffffffffffffffffffffffffffffffffffffffff1673ffffffffffffffffffffffffffffffffffffffff16815260200190815260200160002060008473ffffffffffffffffffffffffffffffffffffffff1673ffffffffffffffffffffffffffffffffffffffff168152602001908152602001600020819055508173ffffffffffffffffffffffffffffffffffffffff168373ffffffffffffffffffffffffffffffffffffffff167f8c5be1e5ebec7d5bd14f71427d1e84f3dd0314c0f7b2291e5b200ac8c7c3b9258360405161301f91906142ca565b60405180910390a3505050565b60006130388484612dd2565b90507fffffffffffffffffffffffffffffffffffffffffffffffffffffffffffffffff81146130b257818110156130a4576040517f08c379a000000000000000000000000000000000000000000000000000000000815260040161309b90614cc6565b60405180910390fd5b6130b18484848403612e61565b5b50505050565b600073ffffffffffffffffffffffffffffffffffffffff168373ffffffffffffffffffffffffffffffffffffffff161415613128576040517f08c379a000000000000000000000000000000000000000000000000000000000815260040161311f90614d58565b60405180910390fd5b600073ffffffffffffffffffffffffffffffffffffffff168273ffffffffffffffffffffffffffffffffffffffff161415613198576040517f08c379a000000000000000000000000000000000000000000000000000000000815260040161318f90614dea565b60405180910390fd5b6131a3838383613e67565b60008060008573ffffffffffffffffffffffffffffffffffffffff1673ffffffffffffffffffffffffffffffffffffffff16815260200190815260200160002054905081811015613229576040517f08c379a000000000000000000000000000000000000000000000000000000000815260040161322090614e7c565b60405180910390fd5b8181036000808673ffffffffffffffffffffffffffffffffffffffff1673ffffffffffffffffffffffffffffffffffffffff16815260200190815260200160002081905550816000808573ffffffffffffffffffffffffffffffffffffffff1673ffffffffffffffffffffffffffffffffffffffff16815260200190815260200160002060008282546132bc9190614592565b925050819055508273ffffffffffffffffffffffffffffffffffffffff168473ffffffffffffffffffffffffffffffffffffffff167fddf252ad1be2c89b69c2b068fc378daa952ba7f163c4a11628f55a4df523b3ef8460405161332091906142ca565b60405180910390a36133338484846140bf565b50505050565b50565b6133687f1d8cfe8b59e1cd3bc8e5daeb32efb6e2257778426d36d8361c688324062bee1e60001b613339565b6133947f36d9f514c86441727f6c71837a6326d2c78ee8e9ef383c8c8a1cf74fa7300f6a60001b613339565b6133c07f7179feac5586e0c41357375610cad9ba05590658bb1714e81c22a08cf5cf2c8660001b613339565b60006133ca611d6e565b90506133f87feef854def7b12d4b26f589dff16d8d35111c4889ac8223ceb8f0e82bd8d9a8d660001b613339565b6134247fd41cf0dffaacbab776966c46c96e830d0afce728b00222c698cf54dd9048643f60001b613339565b600061343c34344761343691906145e8565b846139ac565b905061346a7fa7a63c68228f11dfbf942f6ae61410bfe7c19e6a4b31283ccd6c994d31681f9e60001b613339565b6134967fd8ba7124b95085971c42abc89d22b2a1edde3e01f39dbf3cc413cfbc3ff46bf260001b613339565b6134c27fe9552d4d676ae7450f340d62014de20dc088fd5777a8b63a1b8d46f05a014d9760001b613339565b83811015613505576040517f08c379a00000000000000000000000000000000000000000000000000000000081526004016134fc906147b2565b60405180910390fd5b6135317fbec308825b445152f33f54369880b26817522861c698b19b030682a2059699b260001b613339565b61355d7fdb63c6311b37fd2b2a8fee4c034af98616e4cbe93e14463e0c39a0ba28de499a60001b613339565b6135897f18f643be0c8a9a9d560235ec7a15cbb048ee6d7e9a84b8ef6b8476f56bcdfe4060001b613339565b600560009054906101000a900473ffffffffffffffffffffffffffffffffffffffff1673ffffffffffffffffffffffffffffffffffffffff1663a9059cbb84836040518363ffffffff1660e01b81526004016135e692919061483e565b602060405180830381600087803b15801561360057600080fd5b505af1158015613614573d6000803e3d6000fd5b505050506040513d601f19601f820116820180604052508101906136389190614739565b5050505050565b600073ffffffffffffffffffffffffffffffffffffffff168273ffffffffffffffffffffffffffffffffffffffff1614156136af576040517f08c379a00000000000000000000000000000000000000000000000000000000081526004016136a690614ee8565b60405180910390fd5b6136bb60008383613e67565b80600260008282546136cd9190614592565b92505081905550806000808473ffffffffffffffffffffffffffffffffffffffff1673ffffffffffffffffffffffffffffffffffffffff16815260200190815260200160002060008282546137229190614592565b925050819055508173ffffffffffffffffffffffffffffffffffffffff16600073ffffffffffffffffffffffffffffffffffffffff167fddf252ad1be2c89b69c2b068fc378daa952ba7f163c4a11628f55a4df523b3ef8360405161378791906142ca565b60405180910390a361379b600083836140bf565b5050565b60006137cd7f548c5a85efde94987af12fbfeeb6141ba3c8cc26ab13c4e4fed900ae95eac08560001b613339565b6137f97f06e26e41fec83abaeac362910c2459a83e0e568b40150f4346766e2436b363d260001b613339565b6138257fa62e1d78acf0238fe9096741b030c1eb3de860580cade2b26c1184a5e12bb9be60001b613339565b61382e826108bc565b600960008473ffffffffffffffffffffffffffffffffffffffff1673ffffffffffffffffffffffffffffffffffffffff1681526020019081526020016000208190555061389d7fffb1567d2526ba8f2e7f748ce6f8fa6df5e0cead5bda22abf74c751b1c09d98360001b613339565b6138c97fda5aa2b722417911073548068718bdce113769d87e3eb89be7eee1909ac7737760001b613339565b42600860008473ffffffffffffffffffffffffffffffffffffffff1673ffffffffffffffffffffffffffffffffffffffff168152602001908152602001600020819055506139397f62627671cd534dafc25b323fa1b410c671f649a764607e2089660af5109b48cc60001b613339565b6139657f0c231aa16b12a6a847b2ddd10c2392f3704d84ff98596d719834cf6f6afab6bb60001b613339565b600960008373ffffffffffffffffffffffffffffffffffffffff1673ffffffffffffffffffffffffffffffffffffffff168152602001908152602001600020549050919050565b60006139da7fab74d27d44426b3e8bedb90c41894a610395fa96071729fa4fc628e2f350b66860001b613339565b613a067f3844ab4c56283c5827c642fd1027dd6e08797e9b514a4ddc121cb27daf559cc260001b613339565b613a327f2ca30fa806872e664eba5562ee7c1cefd7577042571828cd7cdd9604ca844a5c60001b613339565b613a5e7f842588e18a8f9364527330bd9f8d1226e686cfc67f2bc3de46c651ac6522e79b60001b613339565b600083118015613a6e5750600082115b613aad576040517f08c379a0000000000000000000000000000000000000000000000000000000008152600401613aa490614f54565b60405180910390fd5b613ad97fd9e607e96078b74cfcba236b32369d39e0305d488175859f79f423a67ad1191860001b613339565b613b057f58b272c7d71a033420ca358e4e205c1691cba3e07ce663b04e9d90c6b9aca79c60001b613339565b613b317fec235025611e1467db0ea949abcca1a32866499ca9922bc007bf27a8e368ff6b60001b613339565b60006103e585613b41919061461c565b9050613b6f7fb94f4dd486fe77148a87a956e0e223bcd30b587804180785d50ba966bec752c660001b613339565b613b9b7f55c4bd5f5a56b612a7705d6f7d2774f66177c5039b594f5930c37b19eea8264c60001b613339565b60008382613ba9919061461c565b9050613bd77f664da2cd98959e5248287b59d12b192129a9970e2c52a13ff5fa516c08c55c6660001b613339565b613c037f2b044336f13fe1f888a9de20f67bf48ad004ef81b334d03b8006eb96e36cf6b560001b613339565b6000826103e887613c14919061461c565b613c1e9190614592565b9050613c4c7f666f15ee42daf751076e0634bf5e6ae74ee7e806f4235a1a7539b3966f95f77160001b613339565b613c787ffa4ea48708770fe3dbc3c1423617dfa6cc6a5e2e127fb148760ae558aa345c9f60001b613339565b8082613c8491906146a5565b93505050509392505050565b600073ffffffffffffffffffffffffffffffffffffffff168273ffffffffffffffffffffffffffffffffffffffff161415613d00576040517f08c379a0000000000000000000000000000000000000000000000000000000008152600401613cf790614fe6565b60405180910390fd5b613d0c82600083613e67565b60008060008473ffffffffffffffffffffffffffffffffffffffff1673ffffffffffffffffffffffffffffffffffffffff16815260200190815260200160002054905081811015613d92576040517f08c379a0000000000000000000000000000000000000000000000000000000008152600401613d8990615078565b60405180910390fd5b8181036000808573ffffffffffffffffffffffffffffffffffffffff1673ffffffffffffffffffffffffffffffffffffffff168152602001908152602001600020819055508160026000828254613de991906145e8565b92505081905550600073ffffffffffffffffffffffffffffffffffffffff168373ffffffffffffffffffffffffffffffffffffffff167fddf252ad1be2c89b69c2b068fc378daa952ba7f163c4a11628f55a4df523b3ef84604051613e4e91906142ca565b60405180910390a3613e62836000846140bf565b505050565b613e937f0c40c615f2d0b4663060418d1120bfd4fa295f2c4349e23f2643958ba3484cfd60001b613339565b613ebf7f9c6c9a35f791fab10f526f8f09a891d61c680139324fb16a34d3bc7a5e74bcce60001b613339565b613eeb7f7c3aa11f9875b3caa0164b28dfc1b087df2fc0cd84a8a1363e0945d43db902d160001b613339565b613ef48361379f565b50613f217fb1d419ff20b020148397a9935cb221672ad81837327bb4e8f912bbfc9c40c69360001b613339565b613f4d7ff0ffbe7519d1b6acfbd6a9d8923c739c2f6d84569548a19672b11385ff9a738860001b613339565b6000613f588361198d565b141561402b57613f8a7ffe1fe364ee3e08432dc5833c2ce2bd0d19bd2491ef48921b1fc3e67a885e274060001b613339565b613fb67f9f57d69327b4f17b867cb8ffdf7560f58e844073310a50119911a49ca1bf479a60001b613339565b613fe27f73c20efa8707ad11ee367ee339ac6a9aa329f2a042a76fae36c01b1736cf3a7760001b613339565b42600860008473ffffffffffffffffffffffffffffffffffffffff1673ffffffffffffffffffffffffffffffffffffffff168152602001908152602001600020819055506140ba565b6140577f68dac39282e912169826bab92fb888a13b2f7eca1aa9d3702b14ca2233c0498160001b613339565b6140837f1db61d76ae777851b4dfec7f7b0bb29553b076d688009f99c1f09f3787cf9a3360001b613339565b6140af7fa044a7a3a17d9760f0ee123c05d710c63719e3e422f0494b23b8a5557a81500a60001b613339565b6140b88261379f565b505b505050565b505050565b600081519050919050565b600082825260208201905092915050565b60005b838110156140fe5780820151818401526020810190506140e3565b8381111561410d576000848401525b50505050565b6000601f19601f8301169050919050565b600061412f826140c4565b61413981856140cf565b93506141498185602086016140e0565b61415281614113565b840191505092915050565b600060208201905081810360008301526141778184614124565b905092915050565b600080fd5b600073ffffffffffffffffffffffffffffffffffffffff82169050919050565b60006141af82614184565b9050919050565b6141bf816141a4565b81146141ca57600080fd5b50565b6000813590506141dc816141b6565b92915050565b6000819050919050565b6141f5816141e2565b811461420057600080fd5b50565b600081359050614212816141ec565b92915050565b6000806040838503121561422f5761422e61417f565b5b600061423d858286016141cd565b925050602061424e85828601614203565b9150509250929050565b60008115159050919050565b61426d81614258565b82525050565b60006020820190506142886000830184614264565b92915050565b6000602082840312156142a4576142a361417f565b5b60006142b2848285016141cd565b91505092915050565b6142c4816141e2565b82525050565b60006020820190506142df60008301846142bb565b92915050565b6000806000606084860312156142fe576142fd61417f565b5b600061430c868287016141cd565b935050602061431d868287016141cd565b925050604061432e86828701614203565b9150509250925092565b600060ff82169050919050565b61434e81614338565b82525050565b60006020820190506143696000830184614345565b92915050565b600080604083850312156143865761438561417f565b5b600061439485828601614203565b92505060206143a5858286016141cd565b9150509250929050565b6000602082840312156143c5576143c461417f565b5b60006143d384828501614203565b91505092915050565b6143e5816141a4565b82525050565b600060208201905061440060008301846143dc565b92915050565b6000806040838503121561441d5761441c61417f565b5b600061442b85828601614203565b925050602061443c85828601614203565b9150509250929050565b600060408201905061445b60008301856142bb565b61446860208301846142bb565b9392505050565b6000806000606084860312156144885761448761417f565b5b600061449686828701614203565b93505060206144a786828701614203565b92505060406144b8868287016141cd565b9150509250925092565b600080604083850312156144d9576144d861417f565b5b60006144e7858286016141cd565b92505060206144f8858286016141cd565b9150509250929050565b7f4e487b7100000000000000000000000000000000000000000000000000000000600052602260045260246000fd5b6000600282049050600182168061454957607f821691505b6020821081141561455d5761455c614502565b5b50919050565b7f4e487b7100000000000000000000000000000000000000000000000000000000600052601160045260246000fd5b600061459d826141e2565b91506145a8836141e2565b9250827fffffffffffffffffffffffffffffffffffffffffffffffffffffffffffffffff038211156145dd576145dc614563565b5b828201905092915050565b60006145f3826141e2565b91506145fe836141e2565b92508282101561461157614610614563565b5b828203905092915050565b6000614627826141e2565b9150614632836141e2565b9250817fffffffffffffffffffffffffffffffffffffffffffffffffffffffffffffffff048311821515161561466b5761466a614563565b5b828202905092915050565b7f4e487b7100000000000000000000000000000000000000000000000000000000600052601260045260246000fd5b60006146b0826141e2565b91506146bb836141e2565b9250826146cb576146ca614676565b5b828204905092915050565b60006060820190506146eb60008301866143dc565b6146f860208301856143dc565b61470560408301846142bb565b949350505050565b61471681614258565b811461472157600080fd5b50565b6000815190506147338161470d565b92915050565b60006020828403121561474f5761474e61417f565b5b600061475d84828501614724565b91505092915050565b7f6e6f7420656e6f75676820696e70757420616d6f756e74210000000000000000600082015250565b600061479c6018836140cf565b91506147a782614766565b602082019050919050565b600060208201905081810360008301526147cb8161478f565b9050919050565b7f3020494e5420746f207769746864726177210000000000000000000000000000600082015250565b60006148086012836140cf565b9150614813826147d2565b602082019050919050565b60006020820190508181036000830152614837816147fb565b9050919050565b600060408201905061485360008301856143dc565b61486060208301846142bb565b9392505050565b600081519050614876816141ec565b92915050565b6000602082840312156148925761489161417f565b5b60006148a084828501614867565b91505092915050565b7f696e76616c696420616d6f756e74210000000000000000000000000000000000600082015250565b60006148df600f836140cf565b91506148ea826148a9565b602082019050919050565b6000602082019050818103600083015261490e816148d2565b9050919050565b7f45524332303a2064656372656173656420616c6c6f77616e63652062656c6f7760008201527f207a65726f000000000000000000000000000000000000000000000000000000602082015250565b60006149716025836140cf565b915061497c82614915565b604082019050919050565b600060208201905081810360008301526149a081614964565b9050919050565b7f6e6f7420656e6f75676820657468000000000000000000000000000000000000600082015250565b60006149dd600e836140cf565b91506149e8826149a7565b602082019050919050565b60006020820190508181036000830152614a0c816149d0565b9050919050565b600081519050614a22816141b6565b92915050565b600060208284031215614a3e57614a3d61417f565b5b6000614a4c84828501614a13565b91505092915050565b7f65786368616e676520646f65736e277420657869737421000000000000000000600082015250565b6000614a8b6017836140cf565b9150614a9682614a55565b602082019050919050565b60006020820190508181036000830152614aba81614a7e565b9050919050565b6000604082019050614ad660008301856142bb565b614ae360208301846143dc565b9392505050565b7f6e6f7420656e6f75676820746f6b656e73000000000000000000000000000000600082015250565b6000614b206011836140cf565b9150614b2b82614aea565b602082019050919050565b60006020820190508181036000830152614b4f81614b13565b9050919050565b7f45524332303a20617070726f76652066726f6d20746865207a65726f2061646460008201527f7265737300000000000000000000000000000000000000000000000000000000602082015250565b6000614bb26024836140cf565b9150614bbd82614b56565b604082019050919050565b60006020820190508181036000830152614be181614ba5565b9050919050565b7f45524332303a20617070726f766520746f20746865207a65726f20616464726560008201527f7373000000000000000000000000000000000000000000000000000000000000602082015250565b6000614c446022836140cf565b9150614c4f82614be8565b604082019050919050565b60006020820190508181036000830152614c7381614c37565b9050919050565b7f45524332303a20696e73756666696369656e7420616c6c6f77616e6365000000600082015250565b6000614cb0601d836140cf565b9150614cbb82614c7a565b602082019050919050565b60006020820190508181036000830152614cdf81614ca3565b9050919050565b7f45524332303a207472616e736665722066726f6d20746865207a65726f20616460008201527f6472657373000000000000000000000000000000000000000000000000000000602082015250565b6000614d426025836140cf565b9150614d4d82614ce6565b604082019050919050565b60006020820190508181036000830152614d7181614d35565b9050919050565b7f45524332303a207472616e7366657220746f20746865207a65726f206164647260008201527f6573730000000000000000000000000000000000000000000000000000000000602082015250565b6000614dd46023836140cf565b9150614ddf82614d78565b604082019050919050565b60006020820190508181036000830152614e0381614dc7565b9050919050565b7f45524332303a207472616e7366657220616d6f756e742065786365656473206260008201527f616c616e63650000000000000000000000000000000000000000000000000000602082015250565b6000614e666026836140cf565b9150614e7182614e0a565b604082019050919050565b60006020820190508181036000830152614e9581614e59565b9050919050565b7f45524332303a206d696e7420746f20746865207a65726f206164647265737300600082015250565b6000614ed2601f836140cf565b9150614edd82614e9c565b602082019050919050565b60006020820190508181036000830152614f0181614ec5565b9050919050565b7f6e6f206c69717569646974792100000000000000000000000000000000000000600082015250565b6000614f3e600d836140cf565b9150614f4982614f08565b602082019050919050565b60006020820190508181036000830152614f6d81614f31565b9050919050565b7f45524332303a206275726e2066726f6d20746865207a65726f2061646472657360008201527f7300000000000000000000000000000000000000000000000000000000000000602082015250565b6000614fd06021836140cf565b9150614fdb82614f74565b604082019050919050565b60006020820190508181036000830152614fff81614fc3565b9050919050565b7f45524332303a206275726e20616d6f756e7420657863656564732062616c616e60008201527f6365000000000000000000000000000000000000000000000000000000000000602082015250565b60006150626022836140cf565b915061506d82615006565b604082019050919050565b6000602082019050818103600083015261509181615055565b905091905056fea2646970667358221220e594cc430846bdf1db5e932cc8d64e20b135b56ae12a119ac571949f5fbb147264736f6c63430008090033",
  "linkReferences": {},
  "deployedLinkReferences": {}
}